{
  "contractName": "Offspring",
  "abi": [
    {
      "anonymous": false,
      "inputs": [
        {
          "indexed": true,
          "internalType": "address",
          "name": "account",
          "type": "address"
        }
      ],
      "name": "AddedToBreederList",
      "type": "event"
    },
    {
      "anonymous": false,
      "inputs": [
        {
          "indexed": false,
          "internalType": "uint256",
          "name": "animalId",
          "type": "uint256"
        }
      ],
      "name": "BurnAnimal",
      "type": "event"
    },
    {
      "anonymous": false,
      "inputs": [
        {
          "indexed": false,
          "internalType": "uint256",
          "name": "animalId",
          "type": "uint256"
        },
        {
          "indexed": false,
          "internalType": "string",
          "name": "tipe",
          "type": "string"
        },
        {
          "indexed": false,
          "internalType": "string",
          "name": "name",
          "type": "string"
        }
      ],
      "name": "NewAnimal",
      "type": "event"
    },
    {
      "anonymous": false,
      "inputs": [
        {
          "indexed": true,
          "internalType": "address",
          "name": "account",
          "type": "address"
        }
      ],
      "name": "RemovedFromBreederList",
      "type": "event"
    },
    {
      "constant": true,
      "inputs": [
        {
          "internalType": "uint256",
          "name": "",
          "type": "uint256"
        }
      ],
      "name": "animalToOwner",
      "outputs": [
        {
          "internalType": "address payable",
          "name": "",
          "type": "address"
        }
      ],
      "payable": false,
      "stateMutability": "view",
      "type": "function"
    },
    {
      "constant": true,
      "inputs": [
        {
          "internalType": "uint256",
          "name": "",
          "type": "uint256"
        }
      ],
      "name": "animals",
      "outputs": [
        {
          "internalType": "uint256",
          "name": "animalId",
          "type": "uint256"
        },
        {
          "internalType": "string",
          "name": "tipe",
          "type": "string"
        },
        {
          "internalType": "string",
          "name": "sexe",
          "type": "string"
        },
        {
          "internalType": "string",
          "name": "name",
          "type": "string"
        },
        {
          "internalType": "string",
          "name": "color",
          "type": "string"
        },
        {
          "internalType": "uint8",
          "name": "nb_paws",
          "type": "uint8"
        }
      ],
      "payable": false,
      "stateMutability": "view",
      "type": "function"
    },
    {
      "constant": false,
      "inputs": [
        {
          "internalType": "string",
          "name": "_tipe",
          "type": "string"
        },
        {
          "internalType": "string",
          "name": "_sexe",
          "type": "string"
        },
        {
          "internalType": "string",
          "name": "_name",
          "type": "string"
        },
        {
          "internalType": "string",
          "name": "_color",
          "type": "string"
        },
        {
          "internalType": "uint8",
          "name": "_nb_paws",
          "type": "uint8"
        }
      ],
      "name": "declareAnimal",
      "outputs": [],
      "payable": false,
      "stateMutability": "nonpayable",
      "type": "function"
    },
    {
      "constant": true,
      "inputs": [
        {
          "internalType": "address",
          "name": "_breeder",
          "type": "address"
        }
      ],
      "name": "isABreeder",
      "outputs": [
        {
          "internalType": "bool",
          "name": "",
          "type": "bool"
        }
      ],
      "payable": false,
      "stateMutability": "view",
      "type": "function"
    },
    {
      "constant": false,
      "inputs": [
        {
          "internalType": "address",
          "name": "_breeder",
          "type": "address"
        }
      ],
      "name": "registerBreeder",
      "outputs": [],
      "payable": false,
      "stateMutability": "nonpayable",
      "type": "function"
    },
    {
      "constant": false,
      "inputs": [
        {
          "internalType": "address",
          "name": "_breeder",
          "type": "address"
        }
      ],
      "name": "removeBreeder",
      "outputs": [],
      "payable": false,
      "stateMutability": "nonpayable",
      "type": "function"
    },
    {
      "constant": false,
      "inputs": [
        {
          "internalType": "uint256",
          "name": "_animalId",
          "type": "uint256"
        },
        {
          "internalType": "uint256",
          "name": "_animalId2",
          "type": "uint256"
        }
      ],
      "name": "BreedAnimal",
      "outputs": [],
      "payable": false,
      "stateMutability": "nonpayable",
      "type": "function"
    },
    {
      "constant": false,
      "inputs": [
        {
          "internalType": "uint256",
          "name": "_animalId",
          "type": "uint256"
        }
      ],
      "name": "readyToOffspring",
      "outputs": [],
      "payable": false,
      "stateMutability": "nonpayable",
      "type": "function"
    },
    {
      "constant": true,
      "inputs": [
        {
          "internalType": "uint256",
          "name": "_animalId",
          "type": "uint256"
        }
      ],
      "name": "isAbleToOffspring",
      "outputs": [
        {
          "internalType": "bool",
          "name": "",
          "type": "bool"
        }
      ],
      "payable": false,
      "stateMutability": "view",
      "type": "function"
    }
  ],
  "bytecode": "0x608060405234801561001057600080fd5b5061180e806100206000396000f3fe608060405234801561001057600080fd5b50600436106100935760003560e01c8063c4f7385211610066578063c4f7385214610357578063c910e4bc146103b3578063cfd76271146103e1578063d006b3b51461066e578063d81c513a146106b457610093565b806346456c6614610098578063476fd474146100dc5780638a6fde0c14610120578063998dd3ca14610158575b600080fd5b6100da600480360360208110156100ae57600080fd5b81019080803573ffffffffffffffffffffffffffffffffffffffff169060200190929190505050610722565b005b61011e600480360360208110156100f257600080fd5b81019080803573ffffffffffffffffffffffffffffffffffffffff16906020019092919050505061081b565b005b6101566004803603604081101561013657600080fd5b810190808035906020019092919080359060200190929190505050610914565b005b6101846004803603602081101561016e57600080fd5b810190808035906020019092919050505061105d565b60405180878152602001806020018060200180602001806020018660ff1660ff16815260200185810385528a818151815260200191508051906020019080838360005b838110156101e25780820151818401526020810190506101c7565b50505050905090810190601f16801561020f5780820380516001836020036101000a031916815260200191505b50858103845289818151815260200191508051906020019080838360005b8381101561024857808201518184015260208101905061022d565b50505050905090810190601f1680156102755780820380516001836020036101000a031916815260200191505b50858103835288818151815260200191508051906020019080838360005b838110156102ae578082015181840152602081019050610293565b50505050905090810190601f1680156102db5780820380516001836020036101000a031916815260200191505b50858103825287818151815260200191508051906020019080838360005b838110156103145780820151818401526020810190506102f9565b50505050905090810190601f1680156103415780820380516001836020036101000a031916815260200191505b509a505050505050505050505060405180910390f35b6103996004803603602081101561036d57600080fd5b81019080803573ffffffffffffffffffffffffffffffffffffffff169060200190929190505050611313565b604051808215151515815260200191505060405180910390f35b6103df600480360360208110156103c957600080fd5b8101908080359060200190929190505050611368565b005b61066c600480360360a08110156103f757600080fd5b810190808035906020019064010000000081111561041457600080fd5b82018360208201111561042657600080fd5b8035906020019184600183028401116401000000008311171561044857600080fd5b91908080601f016020809104026020016040519081016040528093929190818152602001838380828437600081840152601f19601f820116905080830192505050505050509192919290803590602001906401000000008111156104ab57600080fd5b8201836020820111156104bd57600080fd5b803590602001918460018302840111640100000000831117156104df57600080fd5b91908080601f016020809104026020016040519081016040528093929190818152602001838380828437600081840152601f19601f8201169050808301925050505050505091929192908035906020019064010000000081111561054257600080fd5b82018360208201111561055457600080fd5b8035906020019184600183028401116401000000008311171561057657600080fd5b91908080601f016020809104026020016040519081016040528093929190818152602001838380828437600081840152601f19601f820116905080830192505050505050509192919290803590602001906401000000008111156105d957600080fd5b8201836020820111156105eb57600080fd5b8035906020019184600183028401116401000000008311171561060d57600080fd5b91908080601f016020809104026020016040519081016040528093929190818152602001838380828437600081840152601f19601f820116905080830192505050505050509192919290803560ff169060200190929190505050611402565b005b61069a6004803603602081101561068457600080fd5b81019080803590602001909291905050506116d7565b604051808215151515815260200191505060405180910390f35b6106e0600480360360208110156106ca57600080fd5b8101908080359060200190929190505050611701565b604051808273ffffffffffffffffffffffffffffffffffffffff1673ffffffffffffffffffffffffffffffffffffffff16815260200191505060405180910390f35b600115156000808373ffffffffffffffffffffffffffffffffffffffff1673ffffffffffffffffffffffffffffffffffffffff16815260200190815260200160002060009054906101000a900460ff1615151461077e57600080fd5b60008060008373ffffffffffffffffffffffffffffffffffffffff1673ffffffffffffffffffffffffffffffffffffffff16815260200190815260200160002060006101000a81548160ff0219169083151502179055508073ffffffffffffffffffffffffffffffffffffffff167f938ef794f4afe55be567004bfe9ac18c6eb39aa9a923ac272d379b8e0b18863a60405160405180910390a250565b600015156000808373ffffffffffffffffffffffffffffffffffffffff1673ffffffffffffffffffffffffffffffffffffffff16815260200190815260200160002060009054906101000a900460ff1615151461087757600080fd5b60016000808373ffffffffffffffffffffffffffffffffffffffff1673ffffffffffffffffffffffffffffffffffffffff16815260200190815260200160002060006101000a81548160ff0219169083151502179055508073ffffffffffffffffffffffffffffffffffffffff167fc1448f5e2e05cea974ecfedd2f801913739f5ddb6aaf7e34af16e54ba5df2b4660405160405180910390a250565b60011515610921836116d7565b15151461092d57600080fd5b6001151561093a826116d7565b15151461094657600080fd5b73__StringUtils___________________________6346bdca9a6003848154811061096d57fe5b90600052602060002090600602016001016003848154811061098b57fe5b90600052602060002090600602016001016040518363ffffffff1660e01b8152600401808060200180602001838103835285818154600181600116156101000203166002900481526020019150805460018160011615610100020316600290048015610a385780601f10610a0d57610100808354040283529160200191610a38565b820191906000526020600020905b815481529060010190602001808311610a1b57829003601f168201915b5050838103825284818154600181600116156101000203166002900481526020019150805460018160011615610100020316600290048015610abb5780601f10610a9057610100808354040283529160200191610abb565b820191906000526020600020905b815481529060010190602001808311610a9e57829003601f168201915b505094505050505060206040518083038186803b158015610adb57600080fd5b505af4158015610aef573d6000803e3d6000fd5b505050506040513d6020811015610b0557600080fd5b8101908080519060200190929190505050610b1f57600080fd5b73__StringUtils___________________________6346bdca9a60038481548110610b4657fe5b906000526020600020906006020160020160038481548110610b6457fe5b90600052602060002090600602016002016040518363ffffffff1660e01b8152600401808060200180602001838103835285818154600181600116156101000203166002900481526020019150805460018160011615610100020316600290048015610c115780601f10610be657610100808354040283529160200191610c11565b820191906000526020600020905b815481529060010190602001808311610bf457829003601f168201915b5050838103825284818154600181600116156101000203166002900481526020019150805460018160011615610100020316600290048015610c945780601f10610c6957610100808354040283529160200191610c94565b820191906000526020600020905b815481529060010190602001808311610c7757829003601f168201915b505094505050505060206040518083038186803b158015610cb457600080fd5b505af4158015610cc8573d6000803e3d6000fd5b505050506040513d6020811015610cde57600080fd5b8101908080519060200190929190505050610cf857600080fd5b61105960038381548110610d0857fe5b90600052602060002090600602016001018054600181600116156101000203166002900480601f016020809104026020016040519081016040528092919081815260200182805460018160011615610100020316600290048015610dad5780601f10610d8257610100808354040283529160200191610dad565b820191906000526020600020905b815481529060010190602001808311610d9057829003601f168201915b505050505060038381548110610dbf57fe5b90600052602060002090600602016002018054600181600116156101000203166002900480601f016020809104026020016040519081016040528092919081815260200182805460018160011615610100020316600290048015610e645780601f10610e3957610100808354040283529160200191610e64565b820191906000526020600020905b815481529060010190602001808311610e4757829003601f168201915b505050505060038581548110610e7657fe5b906000526020600020906006020160030160038581548110610e9457fe5b90600052602060002090600602016003016040516020018083805460018160011615610100020316600290048015610f035780601f10610ee1576101008083540402835291820191610f03565b820191906000526020600020905b815481529060010190602001808311610eef575b505082805460018160011615610100020316600290048015610f5c5780601f10610f3a576101008083540402835291820191610f5c565b820191906000526020600020905b815481529060010190602001808311610f48575b50509250505060405160208183030381529060405260038581548110610f7e57fe5b90600052602060002090600602016004018054600181600116156101000203166002900480601f0160208091040260200160405190810160405280929190818152602001828054600181600116156101000203166002900480156110235780601f10610ff857610100808354040283529160200191611023565b820191906000526020600020905b81548152906001019060200180831161100657829003601f168201915b50505050506003878154811061103557fe5b906000526020600020906006020160050160009054906101000a900460ff16611402565b5050565b6003818154811061106a57fe5b9060005260206000209060060201600091509050806000015490806001018054600181600116156101000203166002900480601f01602080910402602001604051908101604052809291908181526020018280546001816001161561010002031660029004801561111c5780601f106110f15761010080835404028352916020019161111c565b820191906000526020600020905b8154815290600101906020018083116110ff57829003601f168201915b505050505090806002018054600181600116156101000203166002900480601f0160208091040260200160405190810160405280929190818152602001828054600181600116156101000203166002900480156111ba5780601f1061118f576101008083540402835291602001916111ba565b820191906000526020600020905b81548152906001019060200180831161119d57829003601f168201915b505050505090806003018054600181600116156101000203166002900480601f0160208091040260200160405190810160405280929190818152602001828054600181600116156101000203166002900480156112585780601f1061122d57610100808354040283529160200191611258565b820191906000526020600020905b81548152906001019060200180831161123b57829003601f168201915b505050505090806004018054600181600116156101000203166002900480601f0160208091040260200160405190810160405280929190818152602001828054600181600116156101000203166002900480156112f65780601f106112cb576101008083540402835291602001916112f6565b820191906000526020600020905b8154815290600101906020018083116112d957829003601f168201915b5050505050908060050160009054906101000a900460ff16905086565b60008060008373ffffffffffffffffffffffffffffffffffffffff1673ffffffffffffffffffffffffffffffffffffffff16815260200190815260200160002060009054906101000a900460ff169050919050565b3373ffffffffffffffffffffffffffffffffffffffff166001600083815260200190815260200160002060009054906101000a900473ffffffffffffffffffffffffffffffffffffffff1673ffffffffffffffffffffffffffffffffffffffff16146113d357600080fd5b60016004600083815260200190815260200160002060006101000a81548160ff02191690831515021790555050565b61140b33611313565b61141457600080fd5b6000600380549050905060036040518060c001604052808381526020018881526020018781526020018681526020018581526020018460ff16815250908060018154018082558091505090600182039060005260206000209060060201600090919290919091506000820151816000015560208201518160010190805190602001906114a1929190611734565b5060408201518160020190805190602001906114be929190611734565b5060608201518160030190805190602001906114db929190611734565b5060808201518160040190805190602001906114f8929190611734565b5060a08201518160050160006101000a81548160ff021916908360ff160217905550505050336001600083815260200190815260200160002060006101000a81548173ffffffffffffffffffffffffffffffffffffffff021916908373ffffffffffffffffffffffffffffffffffffffff160217905550600260003373ffffffffffffffffffffffffffffffffffffffff1673ffffffffffffffffffffffffffffffffffffffff168152602001908152602001600020600081548092919060010191905055507fae462cfcea5c6fb0e90d249274da758d8837c3786b93966378612c7670e88cab818786604051808481526020018060200180602001838103835285818151815260200191508051906020019080838360005b8381101561162c578082015181840152602081019050611611565b50505050905090810190601f1680156116595780820380516001836020036101000a031916815260200191505b50838103825284818151815260200191508051906020019080838360005b83811015611692578082015181840152602081019050611677565b50505050905090810190601f1680156116bf5780820380516001836020036101000a031916815260200191505b509550505050505060405180910390a1505050505050565b60006004600083815260200190815260200160002060009054906101000a900460ff169050919050565b60016020528060005260406000206000915054906101000a900473ffffffffffffffffffffffffffffffffffffffff1681565b828054600181600116156101000203166002900490600052602060002090601f016020900481019282601f1061177557805160ff19168380011785556117a3565b828001600101855582156117a3579182015b828111156117a2578251825591602001919060010190611787565b5b5090506117b091906117b4565b5090565b6117d691905b808211156117d25760008160009055506001016117ba565b5090565b9056fea265627a7a723158203efa69136a5352a81f3a451185b62461e7b01b0081355a5f510c310c3e946a7264736f6c63430005100032",
  "source": "pragma solidity >=0.4.25 <0.7.0;\r\n\r\nimport \"./AnimalLand.sol\";\r\nimport \"./StringUtils.sol\";   //Librairy to compare two strings\r\n\r\ncontract Offspring is AnimalLand{\r\n\r\n    mapping(uint256 => bool ) ableToOffspring;\r\n\r\n    /*\r\n    ** Declare the offspring of two animals.\r\n    **In the first time we check if the two animals are in the same type of animal (cat,dog,..) and with different sexe.\r\n    */\r\n\r\n    function BreedAnimal(uint256 _animalId,uint256 _animalId2) public {\r\n        require(isAbleToOffspring(_animalId)==true);\r\n        require(isAbleToOffspring(_animalId2)==true);\r\n        require(StringUtils.equal(animals[_animalId].tipe,animals[_animalId2].tipe));\r\n        require(StringUtils.equal(animals[_animalId].sexe,animals[_animalId2].sexe));\r\n        declareAnimal(animals[_animalId].tipe,animals[_animalId2].sexe,string(abi.encodePacked(animals[_animalId].name,animals[_animalId2].name)),animals[_animalId2].color,animals[_animalId].nb_paws);\r\n    }\r\n\r\n\r\n    /*\r\n    **Breeders able to declare the availability of offspring of his animal.\r\n    */\r\n\r\n    function readyToOffspring(uint256 _animalId) public {\r\n        require(animalToOwner[_animalId]==msg.sender);\r\n        ableToOffspring[_animalId]=true;\r\n    }\r\n\r\n\r\n    /*\r\n    **Schow if the animal is in the list of offspring.\r\n    */\r\n\r\n    function isAbleToOffspring(uint256 _animalId) public view returns(bool) {\r\n        return ableToOffspring[_animalId];\r\n    }\r\n}",
  "sourcePath": "C:\\Users\\Miloj\\OneDrive - De Vinci\\Cours-A4\\Semestre 2\\Blockchain programming\\TD\\TD7-Blockchain\\contracts\\Offspring.sol",
  "compiler": {
    "name": "solc",
    "version": "0.5.16+commit.9c3226ce.Emscripten.clang"
  },
  "schemaVersion": "3.0.23",
  "updatedAt": "2020-03-19T00:05:45.787Z",
  "devdoc": {
    "methods": {}
  },
  "userdoc": {
    "methods": {
      "isABreeder(address)": {
        "notice": "Check if an address is in the breeder list."
      },
      "registerBreeder(address)": {
        "notice": "Add an address in the breeder list. "
      },
      "removeBreeder(address)": {
        "notice": "Remove an address from the breeder list. "
      }
    }
  }
}